{
  "contractName": "CommunityChest",
  "abi": [
    {
      "constant": false,
      "inputs": [],
      "name": "withdraw",
      "outputs": [],
      "payable": false,
      "stateMutability": "nonpayable",
      "type": "function"
    },
    {
      "constant": false,
      "inputs": [
        {
          "name": "amount",
          "type": "uint256"
        }
      ],
      "name": "deposit",
      "outputs": [],
      "payable": true,
      "stateMutability": "payable",
      "type": "function"
    },
    {
      "constant": true,
      "inputs": [],
      "name": "getBalance",
      "outputs": [
        {
          "name": "",
          "type": "uint256"
        }
      ],
      "payable": false,
      "stateMutability": "view",
      "type": "function"
    }
  ],
  "bytecode": "0x608060405234801561001057600080fd5b5061017a806100206000396000f300608060405260043610610057576000357c0100000000000000000000000000000000000000000000000000000000900463ffffffff16806312065fe01461005c5780633ccfd60b14610087578063b6b55f251461009e575b600080fd5b34801561006857600080fd5b506100716100be565b6040518082815260200191505060405180910390f35b34801561009357600080fd5b5061009c6100dd565b005b6100bc6004803603810190808035906020019092919050505061013d565b005b60003073ffffffffffffffffffffffffffffffffffffffff1631905090565b3373ffffffffffffffffffffffffffffffffffffffff166108fc3073ffffffffffffffffffffffffffffffffffffffff16319081150290604051600060405180830381858888f1935050505015801561013a573d6000803e3d6000fd5b50565b803414151561014b57600080fd5b505600a165627a7a7230582053da2d9a46287b3721a9aeb1f6eb41f2d0cd09f58743d2fbd2bfb7d0b316017d0029",
  "source": "pragma solidity ^0.4.17;\n\n//todo: actually confirm that the withdraw is from the correct user\ncontract CommunityChest {\n\tfunction withdraw() public {\n\t\tmsg.sender.transfer(address(this).balance);\n\t}\n\t\n\tfunction deposit(uint256 amount) payable public {\n\t\trequire(msg.value == amount);\n\t\t//nothing here\n\t}\n\n\tfunction getBalance() public view returns (uint256) {\n\t\treturn address(this).balance;\n\t}\n}\n",
  "sourcePath": "/home/alex/etherTest/contracts/Escrow.sol",
  "compiler": {
    "name": "solc",
    "version": "0.4.24+commit.e67f0147.Emscripten.clang"
  },
  "schemaVersion": "2.0.0",
  "updatedAt": "2018-05-26T14:53:03.175Z"
}