{
  "contractName": "EscrowFactory",
  "abi": [
    {
      "constant": true,
      "inputs": [
        {
          "name": "_user",
          "type": "address"
        }
      ],
      "name": "getWallets",
      "outputs": [
        {
          "name": "",
          "type": "address[]"
        }
      ],
      "payable": false,
      "stateMutability": "view",
      "type": "function"
    },
    {
      "constant": false,
      "inputs": [
        {
          "name": "_owner",
          "type": "address"
        }
      ],
      "name": "newEscrow",
      "outputs": [
        {
          "name": "wallet",
          "type": "address"
        }
      ],
      "payable": true,
      "stateMutability": "payable",
      "type": "function"
    }
  ],
  "bytecode": "0x608060405234801561001057600080fd5b5061097e806100206000396000f30060806040526004361061004c576000357c0100000000000000000000000000000000000000000000000000000000900463ffffffff168063422c29a41461005157806360860712146100e9575b600080fd5b34801561005d57600080fd5b50610092600480360381019080803573ffffffffffffffffffffffffffffffffffffffff16906020019092919050505061015f565b6040518080602001828103825283818151815260200191508051906020019060200280838360005b838110156100d55780820151818401526020810190506100ba565b505050509050019250505060405180910390f35b61011d600480360381019080803573ffffffffffffffffffffffffffffffffffffffff16906020019092919050505061022b565b604051808273ffffffffffffffffffffffffffffffffffffffff1673ffffffffffffffffffffffffffffffffffffffff16815260200191505060405180910390f35b60606000808373ffffffffffffffffffffffffffffffffffffffff1673ffffffffffffffffffffffffffffffffffffffff16815260200190815260200160002080548060200260200160405190810160405280929190818152602001828054801561021f57602002820191906000526020600020905b8160009054906101000a900473ffffffffffffffffffffffffffffffffffffffff1673ffffffffffffffffffffffffffffffffffffffff16815260200190600101908083116101d5575b50505050509050919050565b60003382610237610485565b808373ffffffffffffffffffffffffffffffffffffffff1673ffffffffffffffffffffffffffffffffffffffff1681526020018273ffffffffffffffffffffffffffffffffffffffff1673ffffffffffffffffffffffffffffffffffffffff16815260200192505050604051809103906000f0801580156102bc573d6000803e3d6000fd5b5090506000803373ffffffffffffffffffffffffffffffffffffffff1673ffffffffffffffffffffffffffffffffffffffff1681526020019081526020016000208190806001815401808255809150509060018203906000526020600020016000909192909190916101000a81548173ffffffffffffffffffffffffffffffffffffffff021916908373ffffffffffffffffffffffffffffffffffffffff160217905550508173ffffffffffffffffffffffffffffffffffffffff163373ffffffffffffffffffffffffffffffffffffffff16141515610439576000808373ffffffffffffffffffffffffffffffffffffffff1673ffffffffffffffffffffffffffffffffffffffff1681526020019081526020016000208190806001815401808255809150509060018203906000526020600020016000909192909190916101000a81548173ffffffffffffffffffffffffffffffffffffffff021916908373ffffffffffffffffffffffffffffffffffffffff160217905550505b8073ffffffffffffffffffffffffffffffffffffffff166108fc349081150290604051600060405180830381858888f1935050505015801561047f573d6000803e3d6000fd5b50919050565b6040516104bd80610496833901905600608060405234801561001057600080fd5b506040516040806104bd8339810180604052810190808051906020019092919080519060200190929190505050816000806101000a81548173ffffffffffffffffffffffffffffffffffffffff021916908373ffffffffffffffffffffffffffffffffffffffff16021790555080600160006101000a81548173ffffffffffffffffffffffffffffffffffffffff021916908373ffffffffffffffffffffffffffffffffffffffff16021790555050506103ee806100cf6000396000f300608060405260043610610078576000357c0100000000000000000000000000000000000000000000000000000000900463ffffffff16806302d05d3f1461007d57806312065fe0146100d4578063370158ea146100ff5780633ccfd60b146101905780638da5cb5b146101a7578063b6b55f25146101fe575b600080fd5b34801561008957600080fd5b5061009261021e565b604051808273ffffffffffffffffffffffffffffffffffffffff1673ffffffffffffffffffffffffffffffffffffffff16815260200191505060405180910390f35b3480156100e057600080fd5b506100e9610243565b6040518082815260200191505060405180910390f35b34801561010b57600080fd5b50610114610262565b604051808473ffffffffffffffffffffffffffffffffffffffff1673ffffffffffffffffffffffffffffffffffffffff1681526020018373ffffffffffffffffffffffffffffffffffffffff1673ffffffffffffffffffffffffffffffffffffffff168152602001828152602001935050505060405180910390f35b34801561019c57600080fd5b506101a56102cf565b005b3480156101b357600080fd5b506101bc61038b565b604051808273ffffffffffffffffffffffffffffffffffffffff1673ffffffffffffffffffffffffffffffffffffffff16815260200191505060405180910390f35b61021c600480360381019080803590602001909291905050506103b1565b005b6000809054906101000a900473ffffffffffffffffffffffffffffffffffffffff1681565b60003073ffffffffffffffffffffffffffffffffffffffff1631905090565b60008060008060009054906101000a900473ffffffffffffffffffffffffffffffffffffffff16600160009054906101000a900473ffffffffffffffffffffffffffffffffffffffff163073ffffffffffffffffffffffffffffffffffffffff1631925092509250909192565b600160009054906101000a900473ffffffffffffffffffffffffffffffffffffffff1673ffffffffffffffffffffffffffffffffffffffff163373ffffffffffffffffffffffffffffffffffffffff1614151561032b57600080fd5b3373ffffffffffffffffffffffffffffffffffffffff166108fc3073ffffffffffffffffffffffffffffffffffffffff16319081150290604051600060405180830381858888f19350505050158015610388573d6000803e3d6000fd5b50565b600160009054906101000a900473ffffffffffffffffffffffffffffffffffffffff1681565b80341415156103bf57600080fd5b505600a165627a7a723058208b5322898231fa7540ccb04aa975944a727f384f75b009940113e86a946155320029a165627a7a72305820368af48d09423d20252460c3f1d3d7dec4e6defdd839c55dbc4e2987fb2797d10029",
  "source": "pragma solidity ^0.4.17;\n\nimport \"./Escrow.sol\";\n\ncontract EscrowFactory {\n\tmapping(address => address[]) wallets;\n\n\tfunction getWallets(address _user) public view returns(address[]){\n\t\treturn wallets[_user];\n\t}\n\n\tfunction newEscrow (address _owner) payable public returns (address wallet) {\n\t\twallet = new Escrow(msg.sender, _owner);\n\t\twallets[msg.sender].push(wallet);\n\t\tif(msg.sender != _owner) {\n\t\t\twallets[_owner].push(wallet);\n\t\t}\n\t\twallet.transfer(msg.value);\n\t}\n}\n",
  "sourcePath": "/home/alex/etherTest/contracts/EscrowFactory.sol",
  "compiler": {
    "name": "solc",
    "version": "0.4.24+commit.e67f0147.Emscripten.clang"
  },
  "schemaVersion": "2.0.0",
  "updatedAt": "2018-05-26T16:46:50.619Z"
}